{
  "contractName": "SimpleVoting",
  "abi": [
    {
      "inputs": [],
      "stateMutability": "nonpayable",
      "type": "constructor"
    },
    {
      "anonymous": false,
      "inputs": [
        {
          "indexed": true,
          "internalType": "uint256",
          "name": "candidateId",
          "type": "uint256"
        },
        {
          "indexed": false,
          "internalType": "string",
          "name": "name",
          "type": "string"
        }
      ],
      "name": "CandidateAdded",
      "type": "event"
    },
    {
      "anonymous": false,
      "inputs": [
        {
          "indexed": false,
          "internalType": "enum SimpleVoting.Phase",
          "name": "newPhase",
          "type": "uint8"
        }
      ],
      "name": "PhaseChanged",
      "type": "event"
    },
    {
      "anonymous": false,
      "inputs": [
        {
          "indexed": true,
          "internalType": "uint256",
          "name": "roundId",
          "type": "uint256"
        },
        {
          "indexed": true,
          "internalType": "uint256",
          "name": "candidateId",
          "type": "uint256"
        },
        {
          "indexed": true,
          "internalType": "address",
          "name": "voter",
          "type": "address"
        },
        {
          "indexed": false,
          "internalType": "uint256",
          "name": "voteCount",
          "type": "uint256"
        }
      ],
      "name": "VoteCast",
      "type": "event"
    },
    {
      "anonymous": false,
      "inputs": [
        {
          "indexed": false,
          "internalType": "address",
          "name": "voter",
          "type": "address"
        }
      ],
      "name": "VoterAdded",
      "type": "event"
    },
    {
      "anonymous": false,
      "inputs": [
        {
          "indexed": false,
          "internalType": "address",
          "name": "voter",
          "type": "address"
        }
      ],
      "name": "VoterRemoved",
      "type": "event"
    },
    {
      "anonymous": false,
      "inputs": [
        {
          "indexed": true,
          "internalType": "uint256",
          "name": "roundId",
          "type": "uint256"
        },
        {
          "indexed": false,
          "internalType": "uint256",
          "name": "winnerId",
          "type": "uint256"
        },
        {
          "indexed": false,
          "internalType": "uint256",
          "name": "totalVotes",
          "type": "uint256"
        }
      ],
      "name": "VotingEnded",
      "type": "event"
    },
    {
      "anonymous": false,
      "inputs": [
        {
          "indexed": true,
          "internalType": "uint256",
          "name": "roundId",
          "type": "uint256"
        },
        {
          "indexed": false,
          "internalType": "string",
          "name": "title",
          "type": "string"
        },
        {
          "indexed": false,
          "internalType": "uint256",
          "name": "startTime",
          "type": "uint256"
        },
        {
          "indexed": false,
          "internalType": "uint256",
          "name": "endTime",
          "type": "uint256"
        }
      ],
      "name": "VotingStarted",
      "type": "event"
    },
    {
      "inputs": [
        {
          "internalType": "uint256",
          "name": "",
          "type": "uint256"
        }
      ],
      "name": "candidates",
      "outputs": [
        {
          "internalType": "uint256",
          "name": "id",
          "type": "uint256"
        },
        {
          "internalType": "string",
          "name": "name",
          "type": "string"
        },
        {
          "internalType": "uint256",
          "name": "voteCount",
          "type": "uint256"
        }
      ],
      "stateMutability": "view",
      "type": "function",
      "constant": true
    },
    {
      "inputs": [],
      "name": "candidatesCount",
      "outputs": [
        {
          "internalType": "uint256",
          "name": "",
          "type": "uint256"
        }
      ],
      "stateMutability": "view",
      "type": "function",
      "constant": true
    },
    {
      "inputs": [],
      "name": "currentPhase",
      "outputs": [
        {
          "internalType": "enum SimpleVoting.Phase",
          "name": "",
          "type": "uint8"
        }
      ],
      "stateMutability": "view",
      "type": "function",
      "constant": true
    },
    {
      "inputs": [],
      "name": "endTime",
      "outputs": [
        {
          "internalType": "uint256",
          "name": "",
          "type": "uint256"
        }
      ],
      "stateMutability": "view",
      "type": "function",
      "constant": true
    },
    {
      "inputs": [
        {
          "internalType": "address",
          "name": "",
          "type": "address"
        }
      ],
      "name": "hasVoted",
      "outputs": [
        {
          "internalType": "bool",
          "name": "",
          "type": "bool"
        }
      ],
      "stateMutability": "view",
      "type": "function",
      "constant": true
    },
    {
      "inputs": [],
      "name": "owner",
      "outputs": [
        {
          "internalType": "address",
          "name": "",
          "type": "address"
        }
      ],
      "stateMutability": "view",
      "type": "function",
      "constant": true
    },
    {
      "inputs": [
        {
          "internalType": "uint256",
          "name": "",
          "type": "uint256"
        },
        {
          "internalType": "address",
          "name": "",
          "type": "address"
        }
      ],
      "name": "roundHasVoted",
      "outputs": [
        {
          "internalType": "bool",
          "name": "",
          "type": "bool"
        }
      ],
      "stateMutability": "view",
      "type": "function",
      "constant": true
    },
    {
      "inputs": [],
      "name": "roundNumber",
      "outputs": [
        {
          "internalType": "uint256",
          "name": "",
          "type": "uint256"
        }
      ],
      "stateMutability": "view",
      "type": "function",
      "constant": true
    },
    {
      "inputs": [
        {
          "internalType": "uint256",
          "name": "",
          "type": "uint256"
        }
      ],
      "name": "rounds",
      "outputs": [
        {
          "internalType": "uint256",
          "name": "roundId",
          "type": "uint256"
        },
        {
          "internalType": "string",
          "name": "title",
          "type": "string"
        },
        {
          "internalType": "uint256",
          "name": "totalVotes",
          "type": "uint256"
        },
        {
          "internalType": "uint256",
          "name": "winnerId",
          "type": "uint256"
        },
        {
          "internalType": "bool",
          "name": "completed",
          "type": "bool"
        },
        {
          "internalType": "uint256",
          "name": "startTime",
          "type": "uint256"
        },
        {
          "internalType": "uint256",
          "name": "endTime",
          "type": "uint256"
        }
      ],
      "stateMutability": "view",
      "type": "function",
      "constant": true
    },
    {
      "inputs": [],
      "name": "startTime",
      "outputs": [
        {
          "internalType": "uint256",
          "name": "",
          "type": "uint256"
        }
      ],
      "stateMutability": "view",
      "type": "function",
      "constant": true
    },
    {
      "inputs": [],
      "name": "totalVotes",
      "outputs": [
        {
          "internalType": "uint256",
          "name": "",
          "type": "uint256"
        }
      ],
      "stateMutability": "view",
      "type": "function",
      "constant": true
    },
    {
      "inputs": [],
      "name": "voteTitle",
      "outputs": [
        {
          "internalType": "string",
          "name": "",
          "type": "string"
        }
      ],
      "stateMutability": "view",
      "type": "function",
      "constant": true
    },
    {
      "inputs": [
        {
          "internalType": "address",
          "name": "",
          "type": "address"
        }
      ],
      "name": "whitelist",
      "outputs": [
        {
          "internalType": "bool",
          "name": "",
          "type": "bool"
        }
      ],
      "stateMutability": "view",
      "type": "function",
      "constant": true
    },
    {
      "inputs": [
        {
          "internalType": "address",
          "name": "_voter",
          "type": "address"
        }
      ],
      "name": "addVoter",
      "outputs": [],
      "stateMutability": "nonpayable",
      "type": "function"
    },
    {
      "inputs": [
        {
          "internalType": "address",
          "name": "_voter",
          "type": "address"
        }
      ],
      "name": "removeVoter",
      "outputs": [],
      "stateMutability": "nonpayable",
      "type": "function"
    },
    {
      "inputs": [
        {
          "internalType": "string",
          "name": "_name",
          "type": "string"
        }
      ],
      "name": "addCandidate",
      "outputs": [],
      "stateMutability": "nonpayable",
      "type": "function"
    },
    {
      "inputs": [
        {
          "internalType": "string",
          "name": "_title",
          "type": "string"
        },
        {
          "internalType": "uint256",
          "name": "_durationInMinutes",
          "type": "uint256"
        }
      ],
      "name": "startVoting",
      "outputs": [],
      "stateMutability": "nonpayable",
      "type": "function"
    },
    {
      "inputs": [],
      "name": "endVoting",
      "outputs": [],
      "stateMutability": "nonpayable",
      "type": "function"
    },
    {
      "inputs": [],
      "name": "resetForNewRound",
      "outputs": [],
      "stateMutability": "nonpayable",
      "type": "function"
    },
    {
      "inputs": [
        {
          "internalType": "uint256",
          "name": "_candidateId",
          "type": "uint256"
        }
      ],
      "name": "vote",
      "outputs": [],
      "stateMutability": "nonpayable",
      "type": "function"
    },
    {
      "inputs": [],
      "name": "getAllCandidates",
      "outputs": [
        {
          "internalType": "uint256[]",
          "name": "ids",
          "type": "uint256[]"
        },
        {
          "internalType": "string[]",
          "name": "names",
          "type": "string[]"
        },
        {
          "internalType": "uint256[]",
          "name": "voteCounts",
          "type": "uint256[]"
        }
      ],
      "stateMutability": "view",
      "type": "function",
      "constant": true
    },
    {
      "inputs": [],
      "name": "getWinner",
      "outputs": [
        {
          "internalType": "uint256",
          "name": "winnerId",
          "type": "uint256"
        },
        {
          "internalType": "string",
          "name": "winnerName",
          "type": "string"
        },
        {
          "internalType": "uint256",
          "name": "winnerVotes",
          "type": "uint256"
        }
      ],
      "stateMutability": "view",
      "type": "function",
      "constant": true
    },
    {
      "inputs": [],
      "name": "getCurrentRound",
      "outputs": [
        {
          "internalType": "uint256",
          "name": "",
          "type": "uint256"
        },
        {
          "internalType": "string",
          "name": "",
          "type": "string"
        },
        {
          "internalType": "enum SimpleVoting.Phase",
          "name": "",
          "type": "uint8"
        },
        {
          "internalType": "uint256",
          "name": "",
          "type": "uint256"
        },
        {
          "internalType": "uint256",
          "name": "",
          "type": "uint256"
        },
        {
          "internalType": "uint256",
          "name": "",
          "type": "uint256"
        },
        {
          "internalType": "uint256",
          "name": "",
          "type": "uint256"
        }
      ],
      "stateMutability": "view",
      "type": "function",
      "constant": true
    },
    {
      "inputs": [
        {
          "internalType": "uint256",
          "name": "_round",
          "type": "uint256"
        },
        {
          "internalType": "address",
          "name": "_voter",
          "type": "address"
        }
      ],
      "name": "checkHasVotedInRound",
      "outputs": [
        {
          "internalType": "bool",
          "name": "",
          "type": "bool"
        }
      ],
      "stateMutability": "view",
      "type": "function",
      "constant": true
    }
  ],
  "bytecode": "0x608060405234801561001057600080fd5b5060018054336001600160a01b03199091161781556008805460ff1916905560006007819055556119e2806100466000396000f3fe608060405234801561001057600080fd5b50600436106101585760003560e01c806378e97925116100c35780639c0a3cbb1161007c5780639c0a3cbb1461031b578063a32bf5971461032e578063a355b94914610349578063bed0c9af1461035e578063c3403ddf14610366578063f4ab9adf1461036e57600080fd5b806378e979251461028357806386c1ff681461028c5780638c65c81f1461029f5780638da5cb5b146102c55780638e7ea5b2146102f05780639b19251a146102f857600080fd5b80632e6997fe116101155780632e6997fe146102125780633197cbb6146102295780633477ee2e14610232578063462e91ec146102545780634e2786fb146102675780636dade9381461027057600080fd5b80630121b93f1461015d5780630419528714610172578063055ad42e146101b557806309eef43e146101cf5780630d15fd77146101f25780632d35a8a214610209575b600080fd5b61017061016b3660046113a3565b610381565b005b6101a06101803660046113d8565b600c60209081526000928352604080842090915290825290205460ff1681565b60405190151581526020015b60405180910390f35b6008546101c29060ff1681565b6040516101ac919061143c565b6101a06101dd36600461144a565b600a6020526000908152604090205460ff1681565b6101fb60065481565b6040519081526020016101ac565b6101fb60055481565b61021a610644565b6040516101ac939291906114ed565b6101fb60045481565b6102456102403660046113a3565b61088b565b6040516101ac93929190611572565b61017061026236600461163e565b610936565b6101fb60075481565b61017061027e36600461167b565b610a7c565b6101fb60035481565b61017061029a36600461144a565b610bf1565b6102b26102ad3660046113a3565b610c73565b6040516101ac97969594939291906116c0565b6001546102d8906001600160a01b031681565b6040516001600160a01b0390911681526020016101ac565b610245610d3a565b6101a061030636600461144a565b600d6020526000908152604090205460ff1681565b6101a06103293660046113d8565b610ec2565b610336610eef565b6040516101ac9796959493929190611703565b610351610fbf565b6040516101ac919061174f565b61017061104d565b6101706110ed565b61017061037c36600461144a565b611325565b6002600054036103d85760405162461bcd60e51b815260206004820152601f60248201527f5265656e7472616e637947756172643a207265656e7472616e742063616c6c0060448201526064015b60405180910390fd5b600260005560018060085460ff1660028111156103f7576103f7611404565b146104145760405162461bcd60e51b81526004016103cf90611762565b336000908152600d602052604090205460ff166104655760405162461bcd60e51b815260206004820152600f60248201526e139bdd081dda1a5d195b1a5cdd1959608a1b60448201526064016103cf565b60008211801561047757506005548211155b6104ba5760405162461bcd60e51b8152602060048201526014602482015273125b9d985b1a590818d85b991a59185d1948125160621b60448201526064016103cf565b6007546000908152600c6020908152604080832033845290915290205460ff16156105275760405162461bcd60e51b815260206004820152601b60248201527f416c726561647920766f74656420696e207468697320726f756e64000000000060448201526064016103cf565b60045442111561056f5760405162461bcd60e51b8152602060048201526013602482015272159bdd1a5b99c81d1a5b5948195e1c1a5c9959606a1b60448201526064016103cf565b6007546000908152600c6020908152604080832033845282528083208054600160ff199182168117909255600a845282852080549091169091179055848352600990915281206002018054916105c4836117af565b9091555050600680549060006105d9836117af565b9190505550336001600160a01b0316826007547ff6ed5a0362706e33942c258dd867d1664e91a7653843a7c3459a857db97287ae600960008781526020019081526020016000206002015460405161063391815260200190565b60405180910390a450506001600055565b606080606060055467ffffffffffffffff8111156106645761066461159b565b60405190808252806020026020018201604052801561068d578160200160208202803683370190505b50925060055467ffffffffffffffff8111156106ab576106ab61159b565b6040519080825280602002602001820160405280156106de57816020015b60608152602001906001900390816106c95790505b50915060055467ffffffffffffffff8111156106fc576106fc61159b565b604051908082528060200260200182016040528015610725578160200160208202803683370190505b50905060015b6005548111610885576000818152600960205260409020548461074f6001846117c8565b8151811061075f5761075f6117db565b60200260200101818152505060096000828152602001908152602001600020600101805461078c906117f1565b80601f01602080910402602001604051908101604052809291908181526020018280546107b8906117f1565b80156108055780601f106107da57610100808354040283529160200191610805565b820191906000526020600020905b8154815290600101906020018083116107e857829003601f168201915b50505050508360018361081891906117c8565b81518110610828576108286117db565b602002602001018190525060096000828152602001908152602001600020600201548260018361085891906117c8565b81518110610868576108686117db565b60209081029190910101528061087d816117af565b91505061072b565b50909192565b600960205260009081526040902080546001820180549192916108ad906117f1565b80601f01602080910402602001604051908101604052809291908181526020018280546108d9906117f1565b80156109265780601f106108fb57610100808354040283529160200191610926565b820191906000526020600020905b81548152906001019060200180831161090957829003601f168201915b5050505050908060020154905083565b6001546001600160a01b031633146109605760405162461bcd60e51b81526004016103cf9061182b565b60008060085460ff16600281111561097a5761097a611404565b146109975760405162461bcd60e51b81526004016103cf90611762565b60008251116109d85760405162461bcd60e51b815260206004820152600d60248201526c13985b59481c995c5d5a5c9959609a1b60448201526064016103cf565b600580549060006109e8836117af565b9091555050604080516060810182526005548082526020808301868152600084860181905292835260099091529290208151815591519091906001820190610a30908261189d565b50604082015181600201559050506005547fe83b2a43e7e82d975c8a0a6d2f045153c869e111136a34d1889ab7b598e396a383604051610a70919061174f565b60405180910390a25050565b6001546001600160a01b03163314610aa65760405162461bcd60e51b81526004016103cf9061182b565b60008060085460ff166002811115610ac057610ac0611404565b14610add5760405162461bcd60e51b81526004016103cf90611762565b600060055411610b1f5760405162461bcd60e51b815260206004820152600d60248201526c4e6f2063616e6469646174657360981b60448201526064016103cf565b60078054906000610b2f836117af565b9091555060029050610b41848261189d565b5042600355610b5182603c61195d565b610b5b9042611974565b60048190556008805460ff19166001179055600060065560075460035460405191927fd5b9ace8b9a8a40ff1f87ade63d5345ea8cc0266de4d3ca40001b5524fc8d2b492610bac9288929091611987565b60405180910390a27fa6dcc92f45df25789d5639b7a0c97ba1edf3bb1c0b5dd3376fd96a0db87c46426001604051610be4919061143c565b60405180910390a1505050565b6001546001600160a01b03163314610c1b5760405162461bcd60e51b81526004016103cf9061182b565b6001600160a01b0381166000818152600d6020908152604091829020805460ff1916905590519182527fa14a79af012d1756818f9bd59ccfc9ad185a71df86b9392d9059d9e6faf6d64491015b60405180910390a150565b600b6020526000908152604090208054600182018054919291610c95906117f1565b80601f0160208091040260200160405190810160405280929190818152602001828054610cc1906117f1565b8015610d0e5780601f10610ce357610100808354040283529160200191610d0e565b820191906000526020600020905b815481529060010190602001808311610cf157829003601f168201915b50505060028401546003850154600486015460058701546006909701549596929591945060ff16925087565b6000606060008060055411610d815760405162461bcd60e51b815260206004820152600d60248201526c4e6f2063616e6469646174657360981b60448201526064016103cf565b60008060015b6005548111610dd357600081815260096020526040902060020154831015610dc15760008181526009602052604090206002015492509050805b80610dcb816117af565b915050610d87565b5080600003610e0a5750506040805180820190915260088152674e6f20766f74657360c01b60208201526000949093508492509050565b60008181526009602052604090208054600282015460019092018054919290918290610e35906117f1565b80601f0160208091040260200160405190810160405280929190818152602001828054610e61906117f1565b8015610eae5780601f10610e8357610100808354040283529160200191610eae565b820191906000526020600020905b815481529060010190602001808311610e9157829003601f168201915b505050505091509450945094505050909192565b6000828152600c602090815260408083206001600160a01b038516845290915290205460ff165b92915050565b6000606060008060008060006007546002600860009054906101000a900460ff16600654600554600354600454858054610f28906117f1565b80601f0160208091040260200160405190810160405280929190818152602001828054610f54906117f1565b8015610fa15780601f10610f7657610100808354040283529160200191610fa1565b820191906000526020600020905b815481529060010190602001808311610f8457829003601f168201915b50505050509550965096509650965096509650965090919293949596565b60028054610fcc906117f1565b80601f0160208091040260200160405190810160405280929190818152602001828054610ff8906117f1565b80156110455780601f1061101a57610100808354040283529160200191611045565b820191906000526020600020905b81548152906001019060200180831161102857829003601f168201915b505050505081565b6001546001600160a01b031633146110775760405162461bcd60e51b81526004016103cf9061182b565b60028060085460ff16600281111561109157611091611404565b146110ae5760405162461bcd60e51b81526004016103cf90611762565b6008805460ff19169055600060058190556040517fa6dcc92f45df25789d5639b7a0c97ba1edf3bb1c0b5dd3376fd96a0db87c464291610c689161143c565b6001546001600160a01b031633146111175760405162461bcd60e51b81526004016103cf9061182b565b60018060085460ff16600281111561113157611131611404565b1461114e5760405162461bcd60e51b81526004016103cf90611762565b6000611158610d3a565b505090506040518060e0016040528060075481526020016002805461117c906117f1565b80601f01602080910402602001604051908101604052809291908181526020018280546111a8906117f1565b80156111f55780601f106111ca576101008083540402835291602001916111f5565b820191906000526020600020905b8154815290600101906020018083116111d857829003601f168201915b5050505050815260200160065481526020018281526020016001151581526020016003548152602001600454815250600b60006007548152602001908152602001600020600082015181600001556020820151816001019081611258919061189d565b5060408281015160028381019190915560608401516003840155608084015160048401805491151560ff1992831617905560a0850151600585015560c0909401516006938401556008805490941617909255600754905482518481526020810191909152825191927fcea89ec8feb1022162fb57e69a2bb2c4774289bcc281c3e4ff611d3a63ee6e0892918290030190a27fa6dcc92f45df25789d5639b7a0c97ba1edf3bb1c0b5dd3376fd96a0db87c46426002604051611319919061143c565b60405180910390a15050565b6001546001600160a01b0316331461134f5760405162461bcd60e51b81526004016103cf9061182b565b6001600160a01b0381166000818152600d6020908152604091829020805460ff1916600117905590519182527fa636f4a11e2d3ba7f89d042ecb0a6b886716e98cd49d8fd876ee0f73bced42b89101610c68565b6000602082840312156113b557600080fd5b5035919050565b80356001600160a01b03811681146113d357600080fd5b919050565b600080604083850312156113eb57600080fd5b823591506113fb602084016113bc565b90509250929050565b634e487b7160e01b600052602160045260246000fd5b6003811061143857634e487b7160e01b600052602160045260246000fd5b9052565b60208101610ee9828461141a565b60006020828403121561145c57600080fd5b611465826113bc565b9392505050565b600081518084526020808501945080840160005b8381101561149c57815187529582019590820190600101611480565b509495945050505050565b6000815180845260005b818110156114cd576020818501810151868301820152016114b1565b506000602082860101526020601f19601f83011685010191505092915050565b606081526000611500606083018661146c565b6020838203818501528186518084528284019150828160051b85010183890160005b8381101561155057601f1987840301855261153e8383516114a7565b94860194925090850190600101611522565b50508681036040880152611564818961146c565b9a9950505050505050505050565b83815260606020820152600061158b60608301856114a7565b9050826040830152949350505050565b634e487b7160e01b600052604160045260246000fd5b600082601f8301126115c257600080fd5b813567ffffffffffffffff808211156115dd576115dd61159b565b604051601f8301601f19908116603f011681019082821181831017156116055761160561159b565b8160405283815286602085880101111561161e57600080fd5b836020870160208301376000602085830101528094505050505092915050565b60006020828403121561165057600080fd5b813567ffffffffffffffff81111561166757600080fd5b611673848285016115b1565b949350505050565b6000806040838503121561168e57600080fd5b823567ffffffffffffffff8111156116a557600080fd5b6116b1858286016115b1565b95602094909401359450505050565b87815260e0602082015260006116d960e08301896114a7565b6040830197909752506060810194909452911515608084015260a083015260c09091015292915050565b87815260e06020820152600061171c60e08301896114a7565b905061172b604083018861141a565b8560608301528460808301528360a08301528260c083015298975050505050505050565b60208152600061146560208301846114a7565b6020808252601d908201527f496e76616c696420706861736520666f72207468697320616374696f6e000000604082015260600190565b634e487b7160e01b600052601160045260246000fd5b6000600182016117c1576117c1611799565b5060010190565b81810381811115610ee957610ee9611799565b634e487b7160e01b600052603260045260246000fd5b600181811c9082168061180557607f821691505b60208210810361182557634e487b7160e01b600052602260045260246000fd5b50919050565b6020808252600990820152682737ba1037bbb732b960b91b604082015260600190565b601f82111561189857600081815260208120601f850160051c810160208610156118755750805b601f850160051c820191505b8181101561189457828155600101611881565b5050505b505050565b815167ffffffffffffffff8111156118b7576118b761159b565b6118cb816118c584546117f1565b8461184e565b602080601f83116001811461190057600084156118e85750858301515b600019600386901b1c1916600185901b178555611894565b600085815260208120601f198616915b8281101561192f57888601518255948401946001909101908401611910565b508582101561194d5787850151600019600388901b60f8161c191681555b5050505050600190811b01905550565b8082028115828204841417610ee957610ee9611799565b80820180821115610ee957610ee9611799565b60608152600061199a60608301866114a7565b6020830194909452506040015291905056fea26469706673582212209bc1325b5a3f9c8d4cea7e34f4b43b77d079a263db81b5eeea21fc62a43e78a564736f6c63430008130033",
  "immutableReferences": {},
  "source": "// SPDX-License-Identifier: MIT\r\npragma solidity ^0.8.19;\r\n\r\n/**\r\n * @title SimpleVoting - 基于区块链的去中心化电子投票系统\r\n * @author 陈志琛\r\n * @notice 实现了一个安全、透明的多轮投票系统，支持白名单管理、候选人管理和投票统计\r\n * @dev 使用防重入保护和阶段控制确保投票过程的安全性\r\n */\r\ncontract SimpleVoting {\r\n    // ========== 防重入保护机制 ==========\r\n    uint256 private constant _NOT_ENTERED = 1;\r\n    uint256 private constant _ENTERED = 2;\r\n    uint256 private _status;\r\n    modifier nonReentrant() {\r\n        require(_status != _ENTERED, \"ReentrancyGuard: reentrant call\");\r\n        _status = _ENTERED;\r\n        _;\r\n        _status = _NOT_ENTERED;\r\n    }\r\n    address public owner;\r\n    string public voteTitle;\r\n    uint256 public startTime;\r\n    uint256 public endTime;\r\n    uint256 public candidatesCount;\r\n    uint256 public totalVotes;\r\n    uint256 public roundNumber;\r\n    enum Phase { Setup, Voting, Ended }\r\n    Phase public currentPhase;\r\n    struct Candidate {\r\n        uint256 id;\r\n        string name;\r\n        uint256 voteCount;\r\n    }\r\n    struct Round {\r\n        uint256 roundId;\r\n        string title;\r\n        uint256 totalVotes;\r\n        uint256 winnerId;\r\n        bool completed;\r\n        uint256 startTime;\r\n        uint256 endTime;\r\n    }\r\n    mapping(uint256 => Candidate) public candidates;\r\n    mapping(address => bool) public hasVoted;\r\n    mapping(uint256 => Round) public rounds;\r\n    mapping(uint256 => mapping(address => bool)) public roundHasVoted;\r\n    mapping(address => bool) public whitelist;\r\n    event VoteCast(uint256 indexed roundId, uint256 indexed candidateId, address indexed voter, uint256 voteCount);\r\n    event VotingStarted(uint256 indexed roundId, string title, uint256 startTime, uint256 endTime);\r\n    event VotingEnded(uint256 indexed roundId, uint256 winnerId, uint256 totalVotes);\r\n    event CandidateAdded(uint256 indexed candidateId, string name);\r\n    event VoterAdded(address voter);\r\n    event VoterRemoved(address voter);\r\n    event PhaseChanged(Phase newPhase);\r\n    modifier onlyOwner() {\r\n        require(msg.sender == owner, \"Not owner\");\r\n        _;\r\n    }\r\n    modifier onlyWhitelisted() {\r\n        require(whitelist[msg.sender], \"Not whitelisted\");\r\n        _;\r\n    }\r\n    modifier inPhase(Phase _phase) {\r\n        require(currentPhase == _phase, \"Invalid phase for this action\");\r\n        _;\r\n    }\r\n    constructor() {\r\n        owner = msg.sender; // 设置合约所有者\r\n        currentPhase = Phase.Setup;\r\n        roundNumber = 0;\r\n        _status = _NOT_ENTERED; // 初始化防重入状态为未进入\r\n    }\r\n    \r\n    // ========== 白名单管理 ==========\r\n    /// @notice 添加投票者到白名单\r\n    /// @param _voter 投票者地址\r\n    function addVoter(address _voter) public onlyOwner {\r\n        whitelist[_voter] = true;\r\n        emit VoterAdded(_voter);\r\n    }\r\n    \r\n    /// @notice 从白名单移除投票者\r\n    /// @param _voter 投票者地址\r\n    function removeVoter(address _voter) public onlyOwner {\r\n        whitelist[_voter] = false;\r\n        emit VoterRemoved(_voter);\r\n    }\r\n    \r\n    // ========== 候选人管理 ==========\r\n    /// @notice 添加候选人（仅在Setup阶段）\r\n    /// @param _name 候选人名称\r\n    function addCandidate(string memory _name) public onlyOwner inPhase(Phase.Setup) {\r\n        require(bytes(_name).length > 0, \"Name required\");\r\n        candidatesCount++;\r\n        candidates[candidatesCount] = Candidate(candidatesCount, _name, 0);\r\n        emit CandidateAdded(candidatesCount, _name);\r\n    }\r\n    \r\n    // ========== 投票轮次控制 ==========\r\n    /// @notice 开始投票轮次\r\n    /// @param _title 投票标题\r\n    /// @param _durationInMinutes 投票持续时间（分钟）\r\n    function startVoting(string memory _title, uint256 _durationInMinutes) public onlyOwner inPhase(Phase.Setup) {\r\n        require(candidatesCount > 0, \"No candidates\");\r\n        roundNumber++;\r\n        voteTitle = _title;\r\n        startTime = block.timestamp;\r\n        endTime = block.timestamp + (_durationInMinutes * 1 minutes);\r\n        currentPhase = Phase.Voting;\r\n        totalVotes = 0;\r\n        emit VotingStarted(roundNumber, _title, startTime, endTime);\r\n        emit PhaseChanged(Phase.Voting);\r\n    }\r\n    \r\n    /// @notice 结束当前投票轮次\r\n    function endVoting() public onlyOwner inPhase(Phase.Voting) {\r\n        (uint256 winnerId, , ) = getWinner();\r\n        rounds[roundNumber] = Round(roundNumber, voteTitle, totalVotes, winnerId, true, startTime, endTime);\r\n        currentPhase = Phase.Ended;\r\n        emit VotingEnded(roundNumber, winnerId, totalVotes);\r\n        emit PhaseChanged(Phase.Ended);\r\n    }\r\n    \r\n    /// @notice 重置合约以开始新一轮投票\r\n    function resetForNewRound() public onlyOwner inPhase(Phase.Ended) {\r\n        currentPhase = Phase.Setup;\r\n        candidatesCount = 0;\r\n        emit PhaseChanged(Phase.Setup);\r\n    }\r\n    \r\n    // ========== 投票功能 ==========\r\n    /// @notice 执行投票（每个地址每轮只能投一次）\r\n    /// @param _candidateId 候选人ID\r\n    function vote(uint256 _candidateId) public nonReentrant inPhase(Phase.Voting) onlyWhitelisted {\r\n        require(_candidateId > 0 && _candidateId <= candidatesCount, \"Invalid candidate ID\");\r\n        require(!roundHasVoted[roundNumber][msg.sender], \"Already voted in this round\");\r\n        require(block.timestamp <= endTime, \"Voting time expired\");\r\n        roundHasVoted[roundNumber][msg.sender] = true;\r\n        hasVoted[msg.sender] = true;\r\n        candidates[_candidateId].voteCount++;\r\n        totalVotes++;\r\n        emit VoteCast(roundNumber, _candidateId, msg.sender, candidates[_candidateId].voteCount);\r\n    }\r\n    \r\n    // ========== 查询函数 ==========\r\n    /// @notice 获取所有候选人信息\r\n    /// @return ids 候选人ID数组\r\n    /// @return names 候选人名称数组\r\n    /// @return voteCounts 得票数数组\r\n    function getAllCandidates() public view returns (uint256[] memory ids, string[] memory names, uint256[] memory voteCounts) {\r\n        ids = new uint256[](candidatesCount);\r\n        names = new string[](candidatesCount);\r\n        voteCounts = new uint256[](candidatesCount);\r\n        for (uint256 i = 1; i <= candidatesCount; i++) {\r\n            ids[i-1] = candidates[i].id;\r\n            names[i-1] = candidates[i].name;\r\n            voteCounts[i-1] = candidates[i].voteCount;\r\n        }\r\n        return (ids, names, voteCounts);\r\n    }\r\n    \r\n    /// @notice 获取获胜者信息\r\n    /// @return winnerId 获胜者ID\r\n    /// @return winnerName 获胜者名称\r\n    /// @return winnerVotes 获胜者得票数\r\n    function getWinner() public view returns (uint256 winnerId, string memory winnerName, uint256 winnerVotes) {\r\n        require(candidatesCount > 0, \"No candidates\");\r\n        uint256 maxVotes = 0;\r\n        uint256 winner = 0;\r\n        for (uint256 i = 1; i <= candidatesCount; i++) {\r\n            if (candidates[i].voteCount > maxVotes) {\r\n                maxVotes = candidates[i].voteCount;\r\n                winner = i;\r\n            }\r\n        }\r\n        if (winner == 0) return (0, \"No votes\", 0);\r\n        return (candidates[winner].id, candidates[winner].name, candidates[winner].voteCount);\r\n    }\r\n    \r\n    /// @notice 获取当前轮次信息\r\n    function getCurrentRound() public view returns (uint256, string memory, Phase, uint256, uint256, uint256, uint256) {\r\n        return (roundNumber, voteTitle, currentPhase, totalVotes, candidatesCount, startTime, endTime);\r\n    }\r\n    \r\n    /// @notice 检查指定地址是否在指定轮次已投票\r\n    /// @param _round 轮次ID\r\n    /// @param _voter 投票者地址\r\n    /// @return 是否已投票\r\n    function checkHasVotedInRound(uint256 _round, address _voter) public view returns (bool) {\r\n        return roundHasVoted[_round][_voter];\r\n    }\r\n}",
  "sourcePath": "C:\\project\\votingProject\\contracts\\SimpleVoting.sol",
  "compiler": {
    "name": "solc",
    "version": "0.8.19+commit.7dd6d404.Emscripten.clang"
  },
  "schemaVersion": "3.4.16",
  "updatedAt": "2026-05-10T07:44:22.177Z",
  "networkType": "ethereum",
  "devdoc": {
    "author": "陈志琛",
    "details": "使用防重入保护和阶段控制确保投票过程的安全性",
    "kind": "dev",
    "methods": {
      "addCandidate(string)": {
        "params": {
          "_name": "候选人名称"
        }
      },
      "addVoter(address)": {
        "params": {
          "_voter": "投票者地址"
        }
      },
      "checkHasVotedInRound(uint256,address)": {
        "params": {
          "_round": "轮次ID",
          "_voter": "投票者地址"
        },
        "returns": {
          "_0": "是否已投票"
        }
      },
      "getAllCandidates()": {
        "returns": {
          "ids": "候选人ID数组",
          "names": "候选人名称数组",
          "voteCounts": "得票数数组"
        }
      },
      "getWinner()": {
        "returns": {
          "winnerId": "获胜者ID",
          "winnerName": "获胜者名称",
          "winnerVotes": "获胜者得票数"
        }
      },
      "removeVoter(address)": {
        "params": {
          "_voter": "投票者地址"
        }
      },
      "startVoting(string,uint256)": {
        "params": {
          "_durationInMinutes": "投票持续时间（分钟）",
          "_title": "投票标题"
        }
      },
      "vote(uint256)": {
        "params": {
          "_candidateId": "候选人ID"
        }
      }
    },
    "title": "SimpleVoting - 基于区块链的去中心化电子投票系统",
    "version": 1
  },
  "userdoc": {
    "kind": "user",
    "methods": {
      "addCandidate(string)": {
        "notice": "添加候选人（仅在Setup阶段）"
      },
      "addVoter(address)": {
        "notice": "添加投票者到白名单"
      },
      "checkHasVotedInRound(uint256,address)": {
        "notice": "检查指定地址是否在指定轮次已投票"
      },
      "endVoting()": {
        "notice": "结束当前投票轮次"
      },
      "getAllCandidates()": {
        "notice": "获取所有候选人信息"
      },
      "getCurrentRound()": {
        "notice": "获取当前轮次信息"
      },
      "getWinner()": {
        "notice": "获取获胜者信息"
      },
      "removeVoter(address)": {
        "notice": "从白名单移除投票者"
      },
      "resetForNewRound()": {
        "notice": "重置合约以开始新一轮投票"
      },
      "startVoting(string,uint256)": {
        "notice": "开始投票轮次"
      },
      "vote(uint256)": {
        "notice": "执行投票（每个地址每轮只能投一次）"
      }
    },
    "notice": "实现了一个安全、透明的多轮投票系统，支持白名单管理、候选人管理和投票统计",
    "version": 1
  }
}